{
  "_format": "hh-sol-artifact-1",
  "contractName": "Liftup",
  "sourceName": "src/contracts/Liftup.sol",
  "abi": [
    {
      "inputs": [
        {
          "internalType": "uint256",
          "name": "_projectTax",
          "type": "uint256"
        }
      ],
      "stateMutability": "nonpayable",
      "type": "constructor"
    },
    {
      "anonymous": false,
      "inputs": [
        {
          "indexed": false,
          "internalType": "uint256",
          "name": "id",
          "type": "uint256"
        },
        {
          "indexed": false,
          "internalType": "string",
          "name": "actionType",
          "type": "string"
        },
        {
          "indexed": true,
          "internalType": "address",
          "name": "executor",
          "type": "address"
        },
        {
          "indexed": false,
          "internalType": "uint256",
          "name": "timestamp",
          "type": "uint256"
        }
      ],
      "name": "Action",
      "type": "event"
    },
    {
      "inputs": [
        {
          "internalType": "uint256",
          "name": "id",
          "type": "uint256"
        }
      ],
      "name": "backProject",
      "outputs": [
        {
          "internalType": "bool",
          "name": "",
          "type": "bool"
        }
      ],
      "stateMutability": "payable",
      "type": "function"
    },
    {
      "inputs": [],
      "name": "balance",
      "outputs": [
        {
          "internalType": "uint256",
          "name": "",
          "type": "uint256"
        }
      ],
      "stateMutability": "view",
      "type": "function"
    },
    {
      "inputs": [
        {
          "internalType": "uint256",
          "name": "_taxPct",
          "type": "uint256"
        }
      ],
      "name": "changeTax",
      "outputs": [],
      "stateMutability": "nonpayable",
      "type": "function"
    },
    {
      "inputs": [
        {
          "internalType": "string",
          "name": "title",
          "type": "string"
        },
        {
          "internalType": "string",
          "name": "description",
          "type": "string"
        },
        {
          "internalType": "string",
          "name": "imageURL",
          "type": "string"
        },
        {
          "internalType": "uint256",
          "name": "cost",
          "type": "uint256"
        },
        {
          "internalType": "uint256",
          "name": "expiresAt",
          "type": "uint256"
        }
      ],
      "name": "createProject",
      "outputs": [
        {
          "internalType": "bool",
          "name": "",
          "type": "bool"
        }
      ],
      "stateMutability": "nonpayable",
      "type": "function"
    },
    {
      "inputs": [
        {
          "internalType": "uint256",
          "name": "id",
          "type": "uint256"
        }
      ],
      "name": "deleteProject",
      "outputs": [
        {
          "internalType": "bool",
          "name": "",
          "type": "bool"
        }
      ],
      "stateMutability": "nonpayable",
      "type": "function"
    },
    {
      "inputs": [
        {
          "internalType": "uint256",
          "name": "id",
          "type": "uint256"
        }
      ],
      "name": "getBackers",
      "outputs": [
        {
          "components": [
            {
              "internalType": "address",
              "name": "owner",
              "type": "address"
            },
            {
              "internalType": "uint256",
              "name": "contribution",
              "type": "uint256"
            },
            {
              "internalType": "uint256",
              "name": "timestamp",
              "type": "uint256"
            },
            {
              "internalType": "bool",
              "name": "refunded",
              "type": "bool"
            }
          ],
          "internalType": "struct Liftup.backerStruct[]",
          "name": "",
          "type": "tuple[]"
        }
      ],
      "stateMutability": "view",
      "type": "function"
    },
    {
      "inputs": [
        {
          "internalType": "uint256",
          "name": "id",
          "type": "uint256"
        }
      ],
      "name": "getProject",
      "outputs": [
        {
          "components": [
            {
              "internalType": "uint256",
              "name": "id",
              "type": "uint256"
            },
            {
              "internalType": "address",
              "name": "owner",
              "type": "address"
            },
            {
              "internalType": "string",
              "name": "title",
              "type": "string"
            },
            {
              "internalType": "string",
              "name": "description",
              "type": "string"
            },
            {
              "internalType": "string",
              "name": "imageURL",
              "type": "string"
            },
            {
              "internalType": "uint256",
              "name": "cost",
              "type": "uint256"
            },
            {
              "internalType": "uint256",
              "name": "raised",
              "type": "uint256"
            },
            {
              "internalType": "uint256",
              "name": "timestamp",
              "type": "uint256"
            },
            {
              "internalType": "uint256",
              "name": "expiresAt",
              "type": "uint256"
            },
            {
              "internalType": "uint256",
              "name": "backers",
              "type": "uint256"
            },
            {
              "internalType": "enum Liftup.statusEnum",
              "name": "status",
              "type": "uint8"
            }
          ],
          "internalType": "struct Liftup.projectStruct",
          "name": "",
          "type": "tuple"
        }
      ],
      "stateMutability": "view",
      "type": "function"
    },
    {
      "inputs": [],
      "name": "getProjects",
      "outputs": [
        {
          "components": [
            {
              "internalType": "uint256",
              "name": "id",
              "type": "uint256"
            },
            {
              "internalType": "address",
              "name": "owner",
              "type": "address"
            },
            {
              "internalType": "string",
              "name": "title",
              "type": "string"
            },
            {
              "internalType": "string",
              "name": "description",
              "type": "string"
            },
            {
              "internalType": "string",
              "name": "imageURL",
              "type": "string"
            },
            {
              "internalType": "uint256",
              "name": "cost",
              "type": "uint256"
            },
            {
              "internalType": "uint256",
              "name": "raised",
              "type": "uint256"
            },
            {
              "internalType": "uint256",
              "name": "timestamp",
              "type": "uint256"
            },
            {
              "internalType": "uint256",
              "name": "expiresAt",
              "type": "uint256"
            },
            {
              "internalType": "uint256",
              "name": "backers",
              "type": "uint256"
            },
            {
              "internalType": "enum Liftup.statusEnum",
              "name": "status",
              "type": "uint8"
            }
          ],
          "internalType": "struct Liftup.projectStruct[]",
          "name": "",
          "type": "tuple[]"
        }
      ],
      "stateMutability": "view",
      "type": "function"
    },
    {
      "inputs": [],
      "name": "owner",
      "outputs": [
        {
          "internalType": "address",
          "name": "",
          "type": "address"
        }
      ],
      "stateMutability": "view",
      "type": "function"
    },
    {
      "inputs": [
        {
          "internalType": "uint256",
          "name": "id",
          "type": "uint256"
        }
      ],
      "name": "payOutProject",
      "outputs": [
        {
          "internalType": "bool",
          "name": "",
          "type": "bool"
        }
      ],
      "stateMutability": "nonpayable",
      "type": "function"
    },
    {
      "inputs": [],
      "name": "projectCount",
      "outputs": [
        {
          "internalType": "uint256",
          "name": "",
          "type": "uint256"
        }
      ],
      "stateMutability": "view",
      "type": "function"
    },
    {
      "inputs": [
        {
          "internalType": "uint256",
          "name": "",
          "type": "uint256"
        }
      ],
      "name": "projectExist",
      "outputs": [
        {
          "internalType": "bool",
          "name": "",
          "type": "bool"
        }
      ],
      "stateMutability": "view",
      "type": "function"
    },
    {
      "inputs": [],
      "name": "projectTax",
      "outputs": [
        {
          "internalType": "uint256",
          "name": "",
          "type": "uint256"
        }
      ],
      "stateMutability": "view",
      "type": "function"
    },
    {
      "inputs": [
        {
          "internalType": "uint256",
          "name": "id",
          "type": "uint256"
        }
      ],
      "name": "requestRefund",
      "outputs": [
        {
          "internalType": "bool",
          "name": "",
          "type": "bool"
        }
      ],
      "stateMutability": "nonpayable",
      "type": "function"
    },
    {
      "inputs": [],
      "name": "stats",
      "outputs": [
        {
          "internalType": "uint256",
          "name": "totalProjects",
          "type": "uint256"
        },
        {
          "internalType": "uint256",
          "name": "totalBacking",
          "type": "uint256"
        },
        {
          "internalType": "uint256",
          "name": "totalDonations",
          "type": "uint256"
        }
      ],
      "stateMutability": "view",
      "type": "function"
    },
    {
      "inputs": [
        {
          "internalType": "uint256",
          "name": "id",
          "type": "uint256"
        },
        {
          "internalType": "string",
          "name": "title",
          "type": "string"
        },
        {
          "internalType": "string",
          "name": "description",
          "type": "string"
        },
        {
          "internalType": "string",
          "name": "imageURL",
          "type": "string"
        },
        {
          "internalType": "uint256",
          "name": "expiresAt",
          "type": "uint256"
        }
      ],
      "name": "updateProject",
      "outputs": [
        {
          "internalType": "bool",
          "name": "",
          "type": "bool"
        }
      ],
      "stateMutability": "nonpayable",
      "type": "function"
    }
  ],
  "bytecode": "0x608060405234801561001057600080fd5b5060405161252938038061252983398101604081905261002f91610049565b600080546001600160a01b03191633179055600155610061565b60006020828403121561005a578081fd5b5051919050565b6124b9806100706000396000f3fe6080604052600436106100f35760003560e01c8063a4b2409e1161008a578063d24cd3ec11610059578063d24cd3ec14610289578063d80528ae1461029e578063dcc60128146102c2578063f0f3f2c8146102e4576100f3565b8063a4b2409e14610207578063b531dcba14610227578063b69ef8a814610247578063c9168b721461025c576100f3565b80638593054b116100c65780638593054b146101925780638da5cb5b146101b25780639a3fa8c7146101d45780639f39a194146101f4576100f3565b8063056c29ee146100f857806336fbad261461012e5780633e45c8af146101505780634cd0cb2814610172575b600080fd5b34801561010457600080fd5b50610118610113366004611c94565b610311565b6040516101259190611ff5565b60405180910390f35b34801561013a57600080fd5b506101436106ca565b604051610125919061224b565b34801561015c57600080fd5b5061017061016b366004611d2a565b6106d0565b005b34801561017e57600080fd5b5061011861018d366004611d2a565b6106ff565b34801561019e57600080fd5b506101186101ad366004611d2a565b610878565b3480156101be57600080fd5b506101c761088d565b6040516101259190611f12565b3480156101e057600080fd5b506101186101ef366004611d42565b61089c565b610118610202366004611d2a565b610aa6565b34801561021357600080fd5b50610118610222366004611d2a565b610ebe565b34801561023357600080fd5b50610118610242366004611d2a565b611006565b34801561025357600080fd5b506101436110f8565b34801561026857600080fd5b5061027c610277366004611d2a565b6110fe565b6040516101259190611f26565b34801561029557600080fd5b506101436111a0565b3480156102aa57600080fd5b506102b36111a6565b6040516101259392919061235d565b3480156102ce57600080fd5b506102d76111b2565b6040516101259190611f95565b3480156102f057600080fd5b506103046102ff366004611d2a565b611469565b6040516101259190612231565b60008086511161033c5760405162461bcd60e51b8152600401610333906120c9565b60405180910390fd5b600085511161035d5760405162461bcd60e51b815260040161033390612092565b600084511161037e5760405162461bcd60e51b8152600401610333906121c3565b6000831161039e5760405162461bcd60e51b81526004016103339061213e565b6103a6611af9565b600254815233602080830191825260408301898152606084018990526080840188905260a084018790524260e085015261010084018690526007805460018101825560009190915284517fa66cc928b5edb82af9bd49922954155ab7b0942694bea4ce44661d9a8736c688600b90920291820190815593517fa66cc928b5edb82af9bd49922954155ab7b0942694bea4ce44661d9a8736c689820180546001600160a01b0319166001600160a01b0390921691909117905590518051859493610493937fa66cc928b5edb82af9bd49922954155ab7b0942694bea4ce44661d9a8736c68a01920190611b7a565b50606082015180516104af916003840191602090910190611b7a565b50608082015180516104cb916004840191602090910190611b7a565b5060a0820151600582015560c0820151600682015560e0820151600782015561010082015160088201556101208201516009820155610140820151600a8201805460ff1916600183600481111561053257634e487b7160e01b600052602160045260246000fd5b021790555050600280546000908152600a602090815260408083208054600160ff1990911681179091553384526008835281842080548083018255908552938390208751600b909502019384558683015190840180546001600160a01b0319166001600160a01b03909216919091179055850151805186955092936105bf93908501929190910190611b7a565b50606082015180516105db916003840191602090910190611b7a565b50608082015180516105f7916004840191602090910190611b7a565b5060a0820151600582015560c0820151600682015560e0820151600782015561010082015160088201556101208201516009820155610140820151600a8201805460ff1916600183600481111561065e57634e487b7160e01b600052602160045260246000fd5b0217905550505060016004600001600082825461067b9190612373565b9091555050600280543391600080516020612464833981519152919060006106a28361241c565b91905055426040516106b5929190612328565b60405180910390a25060019695505050505050565b60025481565b6000546001600160a01b031633146106fa5760405162461bcd60e51b815260040161033390612196565b600155565b6000806007838154811061072357634e487b7160e01b600052603260045260246000fd5b60009182526020909120600a600b90920201015460ff16600481111561075957634e487b7160e01b600052602160045260246000fd5b146107765760405162461bcd60e51b81526004016103339061202d565b6007828154811061079757634e487b7160e01b600052603260045260246000fd5b60009182526020909120600b90910201600101546001600160a01b031633146107d25760405162461bcd60e51b815260040161033390612000565b6003600783815481106107f557634e487b7160e01b600052603260045260246000fd5b60009182526020909120600a600b9092020101805460ff1916600183600481111561083057634e487b7160e01b600052602160045260246000fd5b021790555061083e8261174f565b336001600160a01b03166000805160206124648339815191528342604051610867929190612254565b60405180910390a25060015b919050565b600a6020526000908152604090205460ff1681565b6000546001600160a01b031681565b6000600786815481106108bf57634e487b7160e01b600052603260045260246000fd5b60009182526020909120600b90910201600101546001600160a01b031633146108fa5760405162461bcd60e51b815260040161033390612000565b600085511161091b5760405162461bcd60e51b8152600401610333906120c9565b600084511161093c5760405162461bcd60e51b815260040161033390612092565b600083511161095d5760405162461bcd60e51b8152600401610333906121c3565b846007878154811061097f57634e487b7160e01b600052603260045260246000fd5b90600052602060002090600b020160020190805190602001906109a3929190611b7a565b5083600787815481106109c657634e487b7160e01b600052603260045260246000fd5b90600052602060002090600b020160030190805190602001906109ea929190611b7a565b508260078781548110610a0d57634e487b7160e01b600052603260045260246000fd5b90600052602060002090600b02016004019080519060200190610a31929190611b7a565b508160078781548110610a5457634e487b7160e01b600052603260045260246000fd5b90600052602060002090600b020160080181905550336001600160a01b03166000805160206124648339815191528742604051610a929291906122f3565b60405180910390a250600195945050505050565b6000803411610ac75760405162461bcd60e51b8152600401610333906121fa565b6000828152600a602052604090205460ff16610af55760405162461bcd60e51b81526004016103339061216b565b600060078381548110610b1857634e487b7160e01b600052603260045260246000fd5b60009182526020909120600a600b90920201015460ff166004811115610b4e57634e487b7160e01b600052602160045260246000fd5b14610b6b5760405162461bcd60e51b81526004016103339061202d565b600160046001016000828254610b819190612373565b909155505060068054349190600090610b9b908490612373565b925050819055503460078381548110610bc457634e487b7160e01b600052603260045260246000fd5b90600052602060002090600b02016006016000828254610be49190612373565b92505081905550600160078381548110610c0e57634e487b7160e01b600052603260045260246000fd5b90600052602060002090600b02016009016000828254610c2e9190612373565b90915550506000828152600960209081526040808320815160808101835233808252348286019081524283860181815260608501898152865460018082018955978b52989099209451600490980290940180546001600160a01b0319166001600160a01b039098169790971787559051938601939093559051600285015593516003909301805460ff1916931515939093179092555160008051602061246483398151915291610ce0918691906122bf565b60405180910390a260078281548110610d0957634e487b7160e01b600052603260045260246000fd5b90600052602060002090600b02016005015460078381548110610d3c57634e487b7160e01b600052603260045260246000fd5b90600052602060002090600b02016006015410610e1157600160078381548110610d7657634e487b7160e01b600052603260045260246000fd5b60009182526020909120600a600b9092020101805460ff19166001836004811115610db157634e487b7160e01b600052602160045260246000fd5b021790555060078281548110610dd757634e487b7160e01b600052603260045260246000fd5b90600052602060002090600b02016006015460036000828254610dfa9190612373565b90915550610e099050826118f5565b506001610873565b60078281548110610e3257634e487b7160e01b600052603260045260246000fd5b90600052602060002090600b0201600801544210610eb657600260078381548110610e6d57634e487b7160e01b600052603260045260246000fd5b60009182526020909120600a600b9092020101805460ff19166001836004811115610ea857634e487b7160e01b600052602160045260246000fd5b0217905550610e098261174f565b506001919050565b6000600260078381548110610ee357634e487b7160e01b600052603260045260246000fd5b60009182526020909120600a600b90920201015460ff166004811115610f1957634e487b7160e01b600052602160045260246000fd5b14158015610f7e5750600360078381548110610f4557634e487b7160e01b600052603260045260246000fd5b60009182526020909120600a600b90920201015460ff166004811115610f7b57634e487b7160e01b600052602160045260246000fd5b14155b610f9a5760405162461bcd60e51b8152600401610333906120f8565b600260078381548110610fbd57634e487b7160e01b600052603260045260246000fd5b60009182526020909120600a600b9092020101805460ff19166001836004811115610ff857634e487b7160e01b600052602160045260246000fd5b0217905550610eb68261174f565b600060016007838154811061102b57634e487b7160e01b600052603260045260246000fd5b60009182526020909120600a600b90920201015460ff16600481111561106157634e487b7160e01b600052602160045260246000fd5b1461107e5760405162461bcd60e51b815260040161033390612064565b6007828154811061109f57634e487b7160e01b600052603260045260246000fd5b60009182526020909120600b90910201600101546001600160a01b03163314806110d357506000546001600160a01b031633145b6110ef5760405162461bcd60e51b815260040161033390612000565b610eb6826118f5565b60035481565b606060096000838152602001908152602001600020805480602002602001604051908101604052809291908181526020016000905b82821015611195576000848152602090819020604080516080810182526004860290920180546001600160a01b03168352600180820154848601526002820154928401929092526003015460ff16151560608301529083529092019101611133565b505050509050919050565b60015481565b60045460055460065483565b60606007805480602002602001604051908101604052809291908181526020016000905b828210156114605760008481526020908190206040805161016081018252600b86029092018054835260018101546001600160a01b0316938301939093526002830180549293929184019161122a906123e1565b80601f0160208091040260200160405190810160405280929190818152602001828054611256906123e1565b80156112a35780601f10611278576101008083540402835291602001916112a3565b820191906000526020600020905b81548152906001019060200180831161128657829003601f168201915b505050505081526020016003820180546112bc906123e1565b80601f01602080910402602001604051908101604052809291908181526020018280546112e8906123e1565b80156113355780601f1061130a57610100808354040283529160200191611335565b820191906000526020600020905b81548152906001019060200180831161131857829003601f168201915b5050505050815260200160048201805461134e906123e1565b80601f016020809104026020016040519081016040528092919081815260200182805461137a906123e1565b80156113c75780601f1061139c576101008083540402835291602001916113c7565b820191906000526020600020905b8154815290600101906020018083116113aa57829003601f168201915b505050918352505060058201546020820152600682015460408201526007820154606082015260088201546080820152600982015460a0820152600a82015460c09091019060ff16600481111561142e57634e487b7160e01b600052602160045260246000fd5b600481111561144d57634e487b7160e01b600052602160045260246000fd5b81525050815260200190600101906111d6565b50505050905090565b611471611af9565b6000828152600a602052604090205460ff1661149f5760405162461bcd60e51b81526004016103339061216b565b600782815481106114c057634e487b7160e01b600052603260045260246000fd5b90600052602060002090600b020160405180610160016040529081600082015481526020016001820160009054906101000a90046001600160a01b03166001600160a01b03166001600160a01b03168152602001600282018054611523906123e1565b80601f016020809104026020016040519081016040528092919081815260200182805461154f906123e1565b801561159c5780601f106115715761010080835404028352916020019161159c565b820191906000526020600020905b81548152906001019060200180831161157f57829003601f168201915b505050505081526020016003820180546115b5906123e1565b80601f01602080910402602001604051908101604052809291908181526020018280546115e1906123e1565b801561162e5780601f106116035761010080835404028352916020019161162e565b820191906000526020600020905b81548152906001019060200180831161161157829003601f168201915b50505050508152602001600482018054611647906123e1565b80601f0160208091040260200160405190810160405280929190818152602001828054611673906123e1565b80156116c05780601f10611695576101008083540402835291602001916116c0565b820191906000526020600020905b8154815290600101906020018083116116a357829003601f168201915b505050918352505060058201546020820152600682015460408201526007820154606082015260088201546080820152600982015460a0820152600a82015460c09091019060ff16600481111561172757634e487b7160e01b600052602160045260246000fd5b600481111561174657634e487b7160e01b600052602160045260246000fd5b90525092915050565b60005b6000828152600960205260409020548110156118f157600082815260096020526040812080548390811061179657634e487b7160e01b600052603260045260246000fd5b6000918252602080832060049092029091015485835260099091526040822080546001600160a01b03909216935090849081106117e357634e487b7160e01b600052603260045260246000fd5b9060005260206000209060040201600101549050600160096000868152602001908152602001600020848154811061182b57634e487b7160e01b600052603260045260246000fd5b906000526020600020906004020160030160006101000a81548160ff0219169083151502179055504260096000868152602001908152602001600020848154811061188657634e487b7160e01b600052603260045260246000fd5b9060005260206000209060040201600201819055506118a58282611a8b565b6001600460010160008282546118bb91906123ca565b9091555050600680548291906000906118d59084906123ca565b92505081905550505080806118e99061241c565b915050611752565b5050565b60006007828154811061191857634e487b7160e01b600052603260045260246000fd5b90600052602060002090600b0201600601549050600060646001548361193e91906123ab565b611948919061238b565b905060046007848154811061196d57634e487b7160e01b600052603260045260246000fd5b60009182526020909120600a600b9092020101805460ff191660018360048111156119a857634e487b7160e01b600052602160045260246000fd5b02179055506119fd600784815481106119d157634e487b7160e01b600052603260045260246000fd5b600091825260209091206001600b9092020101546001600160a01b03166119f883856123ca565b611a8b565b600054611a13906001600160a01b031682611a8b565b60078381548110611a3457634e487b7160e01b600052603260045260246000fd5b90600052602060002090600b02016006015460036000828254611a5791906123ca565b9091555050604051339060008051602061246483398151915290611a7e9086904290612289565b60405180910390a2505050565b6000826001600160a01b031682604051611aa490611f0f565b60006040518083038185875af1925050503d8060008114611ae1576040519150601f19603f3d011682016040523d82523d6000602084013e611ae6565b606091505b5050905080611af457600080fd5b505050565b6040518061016001604052806000815260200160006001600160a01b03168152602001606081526020016060815260200160608152602001600081526020016000815260200160008152602001600081526020016000815260200160006004811115611b7557634e487b7160e01b600052602160045260246000fd5b905290565b828054611b86906123e1565b90600052602060002090601f016020900481019282611ba85760008555611bee565b82601f10611bc157805160ff1916838001178555611bee565b82800160010185558215611bee579182015b82811115611bee578251825591602001919060010190611bd3565b50611bfa929150611bfe565b5090565b5b80821115611bfa5760008155600101611bff565b600082601f830112611c23578081fd5b813567ffffffffffffffff80821115611c3e57611c3e61244d565b604051601f8301601f191681016020018281118282101715611c6257611c6261244d565b604052828152848301602001861015611c79578384fd5b82602086016020830137918201602001929092529392505050565b600080600080600060a08688031215611cab578081fd5b853567ffffffffffffffff80821115611cc2578283fd5b611cce89838a01611c13565b96506020880135915080821115611ce3578283fd5b611cef89838a01611c13565b95506040880135915080821115611d04578283fd5b50611d1188828901611c13565b9598949750949560608101359550608001359392505050565b600060208284031215611d3b578081fd5b5035919050565b600080600080600060a08688031215611d59578081fd5b85359450602086013567ffffffffffffffff80821115611d77578283fd5b611d8389838a01611c13565b95506040880135915080821115611d98578283fd5b611da489838a01611c13565b94506060880135915080821115611db9578283fd5b50611dc688828901611c13565b95989497509295608001359392505050565b6001600160a01b03169052565b60058110611e0357634e487b7160e01b600052602160045260246000fd5b9052565b60008151808452815b81811015611e2c57602081850181015186830182015201611e10565b81811115611e3d5782602083870101525b50601f01601f19169290920160200192915050565b6000610160825184526020830151611e6d6020860182611dd8565b506040830151816040860152611e8582860182611e07565b91505060608301518482036060860152611e9f8282611e07565b91505060808301518482036080860152611eb98282611e07565b91505060a083015160a085015260c083015160c085015260e083015160e085015261010080840151818601525061012080840151818601525061014080840151611f0582870182611de5565b5090949350505050565b90565b6001600160a01b0391909116815260200190565b602080825282518282018190526000919060409081850190868401855b82811015611f8857815180516001600160a01b031685528681015187860152858101518686015260609081015115159085015260809093019290850190600101611f43565b5091979650505050505050565b6000602080830181845280855180835260408601915060408482028701019250838701855b82811015611fe857603f19888603018452611fd6858351611e52565b94509285019290850190600101611fba565b5092979650505050505050565b901515815260200190565b602080825260139082015272556e617574686f72697a656420456e7469747960681b604082015260600190565b60208082526018908201527f50726f6a656374206e6f206c6f6e676572206f70656e65640000000000000000604082015260600190565b602080825260149082015273141c9bda9958dd081b9bdd081054141493d5915160621b604082015260600190565b6020808252601b908201527f4465736372697074696f6e2063616e6e6f7420626520656d7074790000000000604082015260600190565b6020808252601590820152745469746c652063616e6e6f7420626520656d70747960581b604082015260600190565b60208082526026908201527f50726f6a656374206e6f74206d61726b656420617320726576657274206f722060408201526564656c65746560d01b606082015260800190565b602080825260139082015272436f73742063616e6e6f74206265207a65726f60681b604082015260600190565b602080825260119082015270141c9bda9958dd081b9bdd08199bdd5b99607a1b604082015260600190565b6020808252601390820152724f776e6572207265736572766564206f6e6c7960681b604082015260600190565b60208082526018908201527f496d61676555524c2063616e6e6f7420626520656d7074790000000000000000604082015260600190565b6020808252601f908201527f4574686572206d7573742062652067726561746572207468616e207a65726f00604082015260600190565b6000602082526122446020830184611e52565b9392505050565b90815260200190565b918252606060208301819052600f908301526e141493d29150d50811115311551151608a1b6080830152604082015260a00190565b9182526060602083018190526010908301526f141493d29150d508141052510813d55560821b6080830152604082015260a00190565b918252606060208301819052600e908301526d141493d29150d508109050d2d15160921b6080830152604082015260a00190565b918252606060208301819052600f908301526e141493d29150d50815541110551151608a1b6080830152604082015260a00190565b918252606060208301819052600f908301526e141493d29150d50810d49150551151608a1b6080830152604082015260a00190565b9283526020830191909152604082015260600190565b6000821982111561238657612386612437565b500190565b6000826123a657634e487b7160e01b81526012600452602481fd5b500490565b60008160001904831182151516156123c5576123c5612437565b500290565b6000828210156123dc576123dc612437565b500390565b6002810460018216806123f557607f821691505b6020821081141561241657634e487b7160e01b600052602260045260246000fd5b50919050565b600060001982141561243057612430612437565b5060010190565b634e487b7160e01b600052601160045260246000fd5b634e487b7160e01b600052604160045260246000fdfeaee8e5d3bbb2f71a951b5632cee20f7ac487b9f8ab4f66a236f7694b13af7c6aa2646970667358221220c330122e470fa419a2fcb70f33229a8bf4fed23f42cfb14a7b49729153a0fba764736f6c63430008000033",
  "linkReferences": {},
  "deployedLinkReferences": {}
}