{
  "_format": "hh-sol-artifact-1",
  "contractName": "Liftup",
  "sourceName": "src/contracts/Liftup.sol",
  "abi": [
    {
      "inputs": [
        {
          "internalType": "uint256",
          "name": "_projectTax",
          "type": "uint256"
        }
      ],
      "stateMutability": "nonpayable",
      "type": "constructor"
    },
    {
      "anonymous": false,
      "inputs": [
        {
          "indexed": false,
          "internalType": "uint256",
          "name": "id",
          "type": "uint256"
        },
        {
          "indexed": false,
          "internalType": "string",
          "name": "actionType",
          "type": "string"
        },
        {
          "indexed": true,
          "internalType": "address",
          "name": "executor",
          "type": "address"
        },
        {
          "indexed": false,
          "internalType": "uint256",
          "name": "timestamp",
          "type": "uint256"
        }
      ],
      "name": "Action",
      "type": "event"
    },
    {
      "inputs": [
        {
          "internalType": "uint256",
          "name": "id",
          "type": "uint256"
        }
      ],
      "name": "backProject",
      "outputs": [
        {
          "internalType": "bool",
          "name": "",
          "type": "bool"
        }
      ],
      "stateMutability": "payable",
      "type": "function"
    },
    {
      "inputs": [],
      "name": "balance",
      "outputs": [
        {
          "internalType": "uint256",
          "name": "",
          "type": "uint256"
        }
      ],
      "stateMutability": "view",
      "type": "function"
    },
    {
      "inputs": [
        {
          "internalType": "uint256",
          "name": "_taxPct",
          "type": "uint256"
        }
      ],
      "name": "changeTax",
      "outputs": [],
      "stateMutability": "nonpayable",
      "type": "function"
    },
    {
      "inputs": [
        {
          "internalType": "string",
          "name": "title",
          "type": "string"
        },
        {
          "internalType": "string",
          "name": "description",
          "type": "string"
        },
        {
          "internalType": "string",
          "name": "imageURL",
          "type": "string"
        },
        {
          "internalType": "uint256",
          "name": "cost",
          "type": "uint256"
        },
        {
          "internalType": "uint256",
          "name": "expiresAt",
          "type": "uint256"
        }
      ],
      "name": "createProject",
      "outputs": [
        {
          "internalType": "bool",
          "name": "",
          "type": "bool"
        }
      ],
      "stateMutability": "nonpayable",
      "type": "function"
    },
    {
      "inputs": [
        {
          "internalType": "uint256",
          "name": "id",
          "type": "uint256"
        }
      ],
      "name": "deleteProject",
      "outputs": [
        {
          "internalType": "bool",
          "name": "",
          "type": "bool"
        }
      ],
      "stateMutability": "nonpayable",
      "type": "function"
    },
    {
      "inputs": [
        {
          "internalType": "uint256",
          "name": "id",
          "type": "uint256"
        }
      ],
      "name": "getBackers",
      "outputs": [
        {
          "components": [
            {
              "internalType": "address",
              "name": "owner",
              "type": "address"
            },
            {
              "internalType": "uint256",
              "name": "contribution",
              "type": "uint256"
            },
            {
              "internalType": "uint256",
              "name": "timestamp",
              "type": "uint256"
            },
            {
              "internalType": "bool",
              "name": "refunded",
              "type": "bool"
            }
          ],
          "internalType": "struct Liftup.backerStruct[]",
          "name": "",
          "type": "tuple[]"
        }
      ],
      "stateMutability": "view",
      "type": "function"
    },
    {
      "inputs": [
        {
          "internalType": "uint256",
          "name": "id",
          "type": "uint256"
        }
      ],
      "name": "getProject",
      "outputs": [
        {
          "components": [
            {
              "internalType": "uint256",
              "name": "id",
              "type": "uint256"
            },
            {
              "internalType": "address",
              "name": "owner",
              "type": "address"
            },
            {
              "internalType": "string",
              "name": "title",
              "type": "string"
            },
            {
              "internalType": "string",
              "name": "description",
              "type": "string"
            },
            {
              "internalType": "string",
              "name": "imageURL",
              "type": "string"
            },
            {
              "internalType": "uint256",
              "name": "cost",
              "type": "uint256"
            },
            {
              "internalType": "uint256",
              "name": "raised",
              "type": "uint256"
            },
            {
              "internalType": "uint256",
              "name": "timestamp",
              "type": "uint256"
            },
            {
              "internalType": "uint256",
              "name": "expiresAt",
              "type": "uint256"
            },
            {
              "internalType": "uint256",
              "name": "backers",
              "type": "uint256"
            },
            {
              "internalType": "enum Liftup.statusEnum",
              "name": "status",
              "type": "uint8"
            }
          ],
          "internalType": "struct Liftup.projectStruct",
          "name": "",
          "type": "tuple"
        }
      ],
      "stateMutability": "view",
      "type": "function"
    },
    {
      "inputs": [],
      "name": "getProjects",
      "outputs": [
        {
          "components": [
            {
              "internalType": "uint256",
              "name": "id",
              "type": "uint256"
            },
            {
              "internalType": "address",
              "name": "owner",
              "type": "address"
            },
            {
              "internalType": "string",
              "name": "title",
              "type": "string"
            },
            {
              "internalType": "string",
              "name": "description",
              "type": "string"
            },
            {
              "internalType": "string",
              "name": "imageURL",
              "type": "string"
            },
            {
              "internalType": "uint256",
              "name": "cost",
              "type": "uint256"
            },
            {
              "internalType": "uint256",
              "name": "raised",
              "type": "uint256"
            },
            {
              "internalType": "uint256",
              "name": "timestamp",
              "type": "uint256"
            },
            {
              "internalType": "uint256",
              "name": "expiresAt",
              "type": "uint256"
            },
            {
              "internalType": "uint256",
              "name": "backers",
              "type": "uint256"
            },
            {
              "internalType": "enum Liftup.statusEnum",
              "name": "status",
              "type": "uint8"
            }
          ],
          "internalType": "struct Liftup.projectStruct[]",
          "name": "",
          "type": "tuple[]"
        }
      ],
      "stateMutability": "view",
      "type": "function"
    },
    {
      "inputs": [],
      "name": "owner",
      "outputs": [
        {
          "internalType": "address",
          "name": "",
          "type": "address"
        }
      ],
      "stateMutability": "view",
      "type": "function"
    },
    {
      "inputs": [
        {
          "internalType": "uint256",
          "name": "id",
          "type": "uint256"
        }
      ],
      "name": "payOutProject",
      "outputs": [
        {
          "internalType": "bool",
          "name": "",
          "type": "bool"
        }
      ],
      "stateMutability": "nonpayable",
      "type": "function"
    },
    {
      "inputs": [],
      "name": "projectCount",
      "outputs": [
        {
          "internalType": "uint256",
          "name": "",
          "type": "uint256"
        }
      ],
      "stateMutability": "view",
      "type": "function"
    },
    {
      "inputs": [
        {
          "internalType": "uint256",
          "name": "",
          "type": "uint256"
        }
      ],
      "name": "projectExist",
      "outputs": [
        {
          "internalType": "bool",
          "name": "",
          "type": "bool"
        }
      ],
      "stateMutability": "view",
      "type": "function"
    },
    {
      "inputs": [],
      "name": "projectTax",
      "outputs": [
        {
          "internalType": "uint256",
          "name": "",
          "type": "uint256"
        }
      ],
      "stateMutability": "view",
      "type": "function"
    },
    {
      "inputs": [
        {
          "internalType": "uint256",
          "name": "id",
          "type": "uint256"
        }
      ],
      "name": "requestRefund",
      "outputs": [
        {
          "internalType": "bool",
          "name": "",
          "type": "bool"
        }
      ],
      "stateMutability": "nonpayable",
      "type": "function"
    },
    {
      "inputs": [],
      "name": "stats",
      "outputs": [
        {
          "internalType": "uint256",
          "name": "totalProjects",
          "type": "uint256"
        },
        {
          "internalType": "uint256",
          "name": "totalBacking",
          "type": "uint256"
        },
        {
          "internalType": "uint256",
          "name": "totalDonations",
          "type": "uint256"
        }
      ],
      "stateMutability": "view",
      "type": "function"
    },
    {
      "inputs": [
        {
          "internalType": "uint256",
          "name": "id",
          "type": "uint256"
        },
        {
          "internalType": "string",
          "name": "title",
          "type": "string"
        },
        {
          "internalType": "string",
          "name": "description",
          "type": "string"
        },
        {
          "internalType": "string",
          "name": "imageURL",
          "type": "string"
        },
        {
          "internalType": "uint256",
          "name": "expiresAt",
          "type": "uint256"
        }
      ],
      "name": "updateProject",
      "outputs": [
        {
          "internalType": "bool",
          "name": "",
          "type": "bool"
        }
      ],
      "stateMutability": "nonpayable",
      "type": "function"
    }
  ],
  "bytecode": "0x60806040523480156200001157600080fd5b5060405162003e1138038062003e1183398181016040528101906200003791906200009c565b336000806101000a81548173ffffffffffffffffffffffffffffffffffffffff021916908373ffffffffffffffffffffffffffffffffffffffff1602179055508060018190555050620000ec565b6000815190506200009681620000d2565b92915050565b600060208284031215620000af57600080fd5b6000620000bf8482850162000085565b91505092915050565b6000819050919050565b620000dd81620000c8565b8114620000e957600080fd5b50565b613d1580620000fc6000396000f3fe6080604052600436106100f35760003560e01c8063a4b2409e1161008a578063d24cd3ec11610059578063d24cd3ec1461037d578063d80528ae146103a8578063dcc60128146103d5578063f0f3f2c814610400576100f3565b8063a4b2409e1461029b578063b531dcba146102d8578063b69ef8a814610315578063c9168b7214610340576100f3565b80638593054b116100c65780638593054b146101c65780638da5cb5b146102035780639a3fa8c71461022e5780639f39a1941461026b576100f3565b8063056c29ee146100f857806336fbad26146101355780633e45c8af146101605780634cd0cb2814610189575b600080fd5b34801561010457600080fd5b5061011f600480360381019061011a9190612b08565b61043d565b60405161012c9190613553565b60405180910390f35b34801561014157600080fd5b5061014a610991565b60405161015791906136f0565b60405180910390f35b34801561016c57600080fd5b5061018760048036038101906101829190612bc7565b610997565b005b34801561019557600080fd5b506101b060048036038101906101ab9190612bc7565b610a2f565b6040516101bd9190613553565b60405180910390f35b3480156101d257600080fd5b506101ed60048036038101906101e89190612bc7565b610d10565b6040516101fa9190613553565b60405180910390f35b34801561020f57600080fd5b50610218610d30565b60405161022591906134f4565b60405180910390f35b34801561023a57600080fd5b5061025560048036038101906102509190612bf0565b610d54565b6040516102629190613553565b60405180910390f35b61028560048036038101906102809190612bc7565b6110c8565b6040516102929190613553565b60405180910390f35b3480156102a757600080fd5b506102c260048036038101906102bd9190612bc7565b61176d565b6040516102cf9190613553565b60405180910390f35b3480156102e457600080fd5b506102ff60048036038101906102fa9190612bc7565b6119fb565b60405161030c9190613553565b60405180910390f35b34801561032157600080fd5b5061032a611c49565b60405161033791906136f0565b60405180910390f35b34801561034c57600080fd5b5061036760048036038101906103629190612bc7565b611c4f565b604051610374919061350f565b60405180910390f35b34801561038957600080fd5b50610392611d46565b60405161039f91906136f0565b60405180910390f35b3480156103b457600080fd5b506103bd611d4c565b6040516103cc93929190613837565b60405180910390f35b3480156103e157600080fd5b506103ea611d64565b6040516103f79190613531565b60405180910390f35b34801561040c57600080fd5b5061042760048036038101906104229190612bc7565b612093565b60405161043491906136ce565b60405180910390f35b600080865111610482576040517f08c379a0000000000000000000000000000000000000000000000000000000008152600401610479906135ee565b60405180910390fd5b60008551116104c6576040517f08c379a00000000000000000000000000000000000000000000000000000000081526004016104bd906135ce565b60405180910390fd5b600084511161050a576040517f08c379a00000000000000000000000000000000000000000000000000000000081526004016105019061368e565b60405180910390fd5b6000831161054d576040517f08c379a00000000000000000000000000000000000000000000000000000000081526004016105449061362e565b60405180910390fd5b610555612940565b60025481600001818152505033816020019073ffffffffffffffffffffffffffffffffffffffff16908173ffffffffffffffffffffffffffffffffffffffff1681525050868160400181905250858160600181905250848160800181905250838160a0018181525050428160e0018181525050828161010001818152505060078190806001815401808255809150506001900390600052602060002090600b02016000909190919091506000820151816000015560208201518160010160006101000a81548173ffffffffffffffffffffffffffffffffffffffff021916908373ffffffffffffffffffffffffffffffffffffffff160217905550604082015181600201908051906020019061066c9291906129e8565b5060608201518160030190805190602001906106899291906129e8565b5060808201518160040190805190602001906106a69291906129e8565b5060a0820151816005015560c0820151816006015560e082015181600701556101008201518160080155610120820151816009015561014082015181600a0160006101000a81548160ff0219169083600481111561072d577f4e487b7100000000000000000000000000000000000000000000000000000000600052602160045260246000fd5b021790555050506001600a6000600254815260200190815260200160002060006101000a81548160ff021916908315150217905550600860003373ffffffffffffffffffffffffffffffffffffffff1673ffffffffffffffffffffffffffffffffffffffff1681526020019081526020016000208190806001815401808255809150506001900390600052602060002090600b02016000909190919091506000820151816000015560208201518160010160006101000a81548173ffffffffffffffffffffffffffffffffffffffff021916908373ffffffffffffffffffffffffffffffffffffffff16021790555060408201518160020190805190602001906108389291906129e8565b5060608201518160030190805190602001906108559291906129e8565b5060808201518160040190805190602001906108729291906129e8565b5060a0820151816005015560c0820151816006015560e082015181600701556101008201518160080155610120820151816009015561014082015181600a0160006101000a81548160ff021916908360048111156108f9577f4e487b7100000000000000000000000000000000000000000000000000000000600052602160045260246000fd5b021790555050506001600460000160008282546109169190613979565b925050819055503373ffffffffffffffffffffffffffffffffffffffff167faee8e5d3bbb2f71a951b5632cee20f7ac487b9f8ab4f66a236f7694b13af7c6a6002600081548092919061096890613b6f565b919050554260405161097b9291906137fb565b60405180910390a2600191505095945050505050565b60025481565b60008054906101000a900473ffffffffffffffffffffffffffffffffffffffff1673ffffffffffffffffffffffffffffffffffffffff163373ffffffffffffffffffffffffffffffffffffffff1614610a25576040517f08c379a0000000000000000000000000000000000000000000000000000000008152600401610a1c9061366e565b60405180910390fd5b8060018190555050565b6000806004811115610a6a577f4e487b7100000000000000000000000000000000000000000000000000000000600052602160045260246000fd5b60078381548110610aa4577f4e487b7100000000000000000000000000000000000000000000000000000000600052603260045260246000fd5b90600052602060002090600b0201600a0160009054906101000a900460ff166004811115610afb577f4e487b7100000000000000000000000000000000000000000000000000000000600052602160045260246000fd5b14610b3b576040517f08c379a0000000000000000000000000000000000000000000000000000000008152600401610b329061358e565b60405180910390fd5b60078281548110610b75577f4e487b7100000000000000000000000000000000000000000000000000000000600052603260045260246000fd5b90600052602060002090600b020160010160009054906101000a900473ffffffffffffffffffffffffffffffffffffffff1673ffffffffffffffffffffffffffffffffffffffff163373ffffffffffffffffffffffffffffffffffffffff1614610c14576040517f08c379a0000000000000000000000000000000000000000000000000000000008152600401610c0b9061356e565b60405180910390fd5b600360078381548110610c50577f4e487b7100000000000000000000000000000000000000000000000000000000600052603260045260246000fd5b90600052602060002090600b0201600a0160006101000a81548160ff02191690836004811115610ca9577f4e487b7100000000000000000000000000000000000000000000000000000000600052602160045260246000fd5b0217905550610cb782612425565b3373ffffffffffffffffffffffffffffffffffffffff167faee8e5d3bbb2f71a951b5632cee20f7ac487b9f8ab4f66a236f7694b13af7c6a8342604051610cff92919061370b565b60405180910390a260019050919050565b600a6020528060005260406000206000915054906101000a900460ff1681565b60008054906101000a900473ffffffffffffffffffffffffffffffffffffffff1681565b600060078681548110610d90577f4e487b7100000000000000000000000000000000000000000000000000000000600052603260045260246000fd5b90600052602060002090600b020160010160009054906101000a900473ffffffffffffffffffffffffffffffffffffffff1673ffffffffffffffffffffffffffffffffffffffff163373ffffffffffffffffffffffffffffffffffffffff1614610e2f576040517f08c379a0000000000000000000000000000000000000000000000000000000008152600401610e269061356e565b60405180910390fd5b6000855111610e73576040517f08c379a0000000000000000000000000000000000000000000000000000000008152600401610e6a906135ee565b60405180910390fd5b6000845111610eb7576040517f08c379a0000000000000000000000000000000000000000000000000000000008152600401610eae906135ce565b60405180910390fd5b6000835111610efb576040517f08c379a0000000000000000000000000000000000000000000000000000000008152600401610ef29061368e565b60405180910390fd5b8460078781548110610f36577f4e487b7100000000000000000000000000000000000000000000000000000000600052603260045260246000fd5b90600052602060002090600b02016002019080519060200190610f5a9291906129e8565b508360078781548110610f96577f4e487b7100000000000000000000000000000000000000000000000000000000600052603260045260246000fd5b90600052602060002090600b02016003019080519060200190610fba9291906129e8565b508260078781548110610ff6577f4e487b7100000000000000000000000000000000000000000000000000000000600052603260045260246000fd5b90600052602060002090600b0201600401908051906020019061101a9291906129e8565b508160078781548110611056577f4e487b7100000000000000000000000000000000000000000000000000000000600052603260045260246000fd5b90600052602060002090600b0201600801819055503373ffffffffffffffffffffffffffffffffffffffff167faee8e5d3bbb2f71a951b5632cee20f7ac487b9f8ab4f66a236f7694b13af7c6a87426040516110b39291906137bf565b60405180910390a26001905095945050505050565b600080341161110c576040517f08c379a0000000000000000000000000000000000000000000000000000000008152600401611103906136ae565b60405180910390fd5b600a600083815260200190815260200160002060009054906101000a900460ff1661116c576040517f08c379a00000000000000000000000000000000000000000000000000000000081526004016111639061364e565b60405180910390fd5b600060048111156111a6577f4e487b7100000000000000000000000000000000000000000000000000000000600052602160045260246000fd5b600783815481106111e0577f4e487b7100000000000000000000000000000000000000000000000000000000600052603260045260246000fd5b90600052602060002090600b0201600a0160009054906101000a900460ff166004811115611237577f4e487b7100000000000000000000000000000000000000000000000000000000600052602160045260246000fd5b14611277576040517f08c379a000000000000000000000000000000000000000000000000000000000815260040161126e9061358e565b60405180910390fd5b60016004600101600082825461128d9190613979565b9250508190555034600460020160008282546112a99190613979565b9250508190555034600783815481106112eb577f4e487b7100000000000000000000000000000000000000000000000000000000600052603260045260246000fd5b90600052602060002090600b0201600601600082825461130b9190613979565b9250508190555060016007838154811061134e577f4e487b7100000000000000000000000000000000000000000000000000000000600052603260045260246000fd5b90600052602060002090600b0201600901600082825461136e9190613979565b925050819055506009600083815260200190815260200160002060405180608001604052803373ffffffffffffffffffffffffffffffffffffffff16815260200134815260200142815260200160001515815250908060018154018082558091505060019003906000526020600020906004020160009091909190915060008201518160000160006101000a81548173ffffffffffffffffffffffffffffffffffffffff021916908373ffffffffffffffffffffffffffffffffffffffff160217905550602082015181600101556040820151816002015560608201518160030160006101000a81548160ff02191690831515021790555050503373ffffffffffffffffffffffffffffffffffffffff167faee8e5d3bbb2f71a951b5632cee20f7ac487b9f8ab4f66a236f7694b13af7c6a83426040516114b0929190613783565b60405180910390a2600782815481106114f2577f4e487b7100000000000000000000000000000000000000000000000000000000600052603260045260246000fd5b90600052602060002090600b0201600501546007838154811061153e577f4e487b7100000000000000000000000000000000000000000000000000000000600052603260045260246000fd5b90600052602060002090600b0201600601541061166557600160078381548110611591577f4e487b7100000000000000000000000000000000000000000000000000000000600052603260045260246000fd5b90600052602060002090600b0201600a0160006101000a81548160ff021916908360048111156115ea577f4e487b7100000000000000000000000000000000000000000000000000000000600052602160045260246000fd5b021790555060078281548110611629577f4e487b7100000000000000000000000000000000000000000000000000000000600052603260045260246000fd5b90600052602060002090600b0201600601546003600082825461164c9190613979565b9250508190555061165c8261265a565b60019050611768565b6007828154811061169f577f4e487b7100000000000000000000000000000000000000000000000000000000600052603260045260246000fd5b90600052602060002090600b0201600801544210611763576002600783815481106116f3577f4e487b7100000000000000000000000000000000000000000000000000000000600052603260045260246000fd5b90600052602060002090600b0201600a0160006101000a81548160ff0219169083600481111561174c577f4e487b7100000000000000000000000000000000000000000000000000000000600052602160045260246000fd5b021790555061175a82612425565b60019050611768565b600190505b919050565b6000600260048111156117a9577f4e487b7100000000000000000000000000000000000000000000000000000000600052602160045260246000fd5b600783815481106117e3577f4e487b7100000000000000000000000000000000000000000000000000000000600052603260045260246000fd5b90600052602060002090600b0201600a0160009054906101000a900460ff16600481111561183a577f4e487b7100000000000000000000000000000000000000000000000000000000600052602160045260246000fd5b14158061191057506003600481111561187c577f4e487b7100000000000000000000000000000000000000000000000000000000600052602160045260246000fd5b600783815481106118b6577f4e487b7100000000000000000000000000000000000000000000000000000000600052603260045260246000fd5b90600052602060002090600b0201600a0160009054906101000a900460ff16600481111561190d577f4e487b7100000000000000000000000000000000000000000000000000000000600052602160045260246000fd5b14155b61194f576040517f08c379a00000000000000000000000000000000000000000000000000000000081526004016119469061360e565b60405180910390fd5b60026007838154811061198b577f4e487b7100000000000000000000000000000000000000000000000000000000600052603260045260246000fd5b90600052602060002090600b0201600a0160006101000a81548160ff021916908360048111156119e4577f4e487b7100000000000000000000000000000000000000000000000000000000600052602160045260246000fd5b02179055506119f282612425565b60019050919050565b600060016004811115611a37577f4e487b7100000000000000000000000000000000000000000000000000000000600052602160045260246000fd5b60078381548110611a71577f4e487b7100000000000000000000000000000000000000000000000000000000600052603260045260246000fd5b90600052602060002090600b0201600a0160009054906101000a900460ff166004811115611ac8577f4e487b7100000000000000000000000000000000000000000000000000000000600052602160045260246000fd5b14611b08576040517f08c379a0000000000000000000000000000000000000000000000000000000008152600401611aff906135ae565b60405180910390fd5b60078281548110611b42577f4e487b7100000000000000000000000000000000000000000000000000000000600052603260045260246000fd5b90600052602060002090600b020160010160009054906101000a900473ffffffffffffffffffffffffffffffffffffffff1673ffffffffffffffffffffffffffffffffffffffff163373ffffffffffffffffffffffffffffffffffffffff161480611bf8575060008054906101000a900473ffffffffffffffffffffffffffffffffffffffff1673ffffffffffffffffffffffffffffffffffffffff163373ffffffffffffffffffffffffffffffffffffffff16145b611c37576040517f08c379a0000000000000000000000000000000000000000000000000000000008152600401611c2e9061356e565b60405180910390fd5b611c408261265a565b60019050919050565b60035481565b606060096000838152602001908152602001600020805480602002602001604051908101604052809291908181526020016000905b82821015611d3b57838290600052602060002090600402016040518060800160405290816000820160009054906101000a900473ffffffffffffffffffffffffffffffffffffffff1673ffffffffffffffffffffffffffffffffffffffff1673ffffffffffffffffffffffffffffffffffffffff16815260200160018201548152602001600282015481526020016003820160009054906101000a900460ff16151515158152505081526020019060010190611c84565b505050509050919050565b60015481565b60048060000154908060010154908060020154905083565b60606007805480602002602001604051908101604052809291908181526020016000905b8282101561208a57838290600052602060002090600b020160405180610160016040529081600082015481526020016001820160009054906101000a900473ffffffffffffffffffffffffffffffffffffffff1673ffffffffffffffffffffffffffffffffffffffff1673ffffffffffffffffffffffffffffffffffffffff168152602001600282018054611e1c90613b3d565b80601f0160208091040260200160405190810160405280929190818152602001828054611e4890613b3d565b8015611e955780601f10611e6a57610100808354040283529160200191611e95565b820191906000526020600020905b815481529060010190602001808311611e7857829003601f168201915b50505050508152602001600382018054611eae90613b3d565b80601f0160208091040260200160405190810160405280929190818152602001828054611eda90613b3d565b8015611f275780601f10611efc57610100808354040283529160200191611f27565b820191906000526020600020905b815481529060010190602001808311611f0a57829003601f168201915b50505050508152602001600482018054611f4090613b3d565b80601f0160208091040260200160405190810160405280929190818152602001828054611f6c90613b3d565b8015611fb95780601f10611f8e57610100808354040283529160200191611fb9565b820191906000526020600020905b815481529060010190602001808311611f9c57829003601f168201915b505050505081526020016005820154815260200160068201548152602001600782015481526020016008820154815260200160098201548152602001600a820160009054906101000a900460ff16600481111561203f577f4e487b7100000000000000000000000000000000000000000000000000000000600052602160045260246000fd5b6004811115612077577f4e487b7100000000000000000000000000000000000000000000000000000000600052602160045260246000fd5b8152505081526020019060010190611d88565b50505050905090565b61209b612940565b600a600083815260200190815260200160002060009054906101000a900460ff166120fb576040517f08c379a00000000000000000000000000000000000000000000000000000000081526004016120f29061364e565b60405180910390fd5b60078281548110612135577f4e487b7100000000000000000000000000000000000000000000000000000000600052603260045260246000fd5b90600052602060002090600b020160405180610160016040529081600082015481526020016001820160009054906101000a900473ffffffffffffffffffffffffffffffffffffffff1673ffffffffffffffffffffffffffffffffffffffff1673ffffffffffffffffffffffffffffffffffffffff1681526020016002820180546121bf90613b3d565b80601f01602080910402602001604051908101604052809291908181526020018280546121eb90613b3d565b80156122385780601f1061220d57610100808354040283529160200191612238565b820191906000526020600020905b81548152906001019060200180831161221b57829003601f168201915b5050505050815260200160038201805461225190613b3d565b80601f016020809104026020016040519081016040528092919081815260200182805461227d90613b3d565b80156122ca5780601f1061229f576101008083540402835291602001916122ca565b820191906000526020600020905b8154815290600101906020018083116122ad57829003601f168201915b505050505081526020016004820180546122e390613b3d565b80601f016020809104026020016040519081016040528092919081815260200182805461230f90613b3d565b801561235c5780601f106123315761010080835404028352916020019161235c565b820191906000526020600020905b81548152906001019060200180831161233f57829003601f168201915b505050505081526020016005820154815260200160068201548152602001600782015481526020016008820154815260200160098201548152602001600a820160009054906101000a900460ff1660048111156123e2577f4e487b7100000000000000000000000000000000000000000000000000000000600052602160045260246000fd5b600481111561241a577f4e487b7100000000000000000000000000000000000000000000000000000000600052602160045260246000fd5b815250509050919050565b60005b6009600083815260200190815260200160002080549050811015612656576000600960008481526020019081526020016000208281548110612493577f4e487b7100000000000000000000000000000000000000000000000000000000600052603260045260246000fd5b906000526020600020906004020160000160009054906101000a900473ffffffffffffffffffffffffffffffffffffffff1690506000600960008581526020019081526020016000208381548110612514577f4e487b7100000000000000000000000000000000000000000000000000000000600052603260045260246000fd5b90600052602060002090600402016001015490506001600960008681526020019081526020016000208481548110612575577f4e487b7100000000000000000000000000000000000000000000000000000000600052603260045260246000fd5b906000526020600020906004020160030160006101000a81548160ff021916908315150217905550426009600086815260200190815260200160002084815481106125e9577f4e487b7100000000000000000000000000000000000000000000000000000000600052603260045260246000fd5b90600052602060002090600402016002018190555061260882826128c5565b60016004600101600082825461261e9190613a5a565b92505081905550806004600201600082825461263a9190613a5a565b925050819055505050808061264e90613b6f565b915050612428565b5050565b600060078281548110612696577f4e487b7100000000000000000000000000000000000000000000000000000000600052603260045260246000fd5b90600052602060002090600b020160060154905060006064600154836126bc9190613a00565b6126c691906139cf565b9050600460078481548110612704577f4e487b7100000000000000000000000000000000000000000000000000000000600052603260045260246000fd5b90600052602060002090600b0201600a0160006101000a81548160ff0219169083600481111561275d577f4e487b7100000000000000000000000000000000000000000000000000000000600052602160045260246000fd5b02179055506127e26007848154811061279f577f4e487b7100000000000000000000000000000000000000000000000000000000600052603260045260246000fd5b90600052602060002090600b020160010160009054906101000a900473ffffffffffffffffffffffffffffffffffffffff1682846127dd9190613a5a565b6128c5565b61280c60008054906101000a900473ffffffffffffffffffffffffffffffffffffffff16826128c5565b60078381548110612846577f4e487b7100000000000000000000000000000000000000000000000000000000600052603260045260246000fd5b90600052602060002090600b020160060154600360008282546128699190613a5a565b925050819055503373ffffffffffffffffffffffffffffffffffffffff167faee8e5d3bbb2f71a951b5632cee20f7ac487b9f8ab4f66a236f7694b13af7c6a84426040516128b8929190613747565b60405180910390a2505050565b60008273ffffffffffffffffffffffffffffffffffffffff16826040516128eb906134df565b60006040518083038185875af1925050503d8060008114612928576040519150601f19603f3d011682016040523d82523d6000602084013e61292d565b606091505b505090508061293b57600080fd5b505050565b60405180610160016040528060008152602001600073ffffffffffffffffffffffffffffffffffffffff1681526020016060815260200160608152602001606081526020016000815260200160008152602001600081526020016000815260200160008152602001600060048111156129e2577f4e487b7100000000000000000000000000000000000000000000000000000000600052602160045260246000fd5b81525090565b8280546129f490613b3d565b90600052602060002090601f016020900481019282612a165760008555612a5d565b82601f10612a2f57805160ff1916838001178555612a5d565b82800160010185558215612a5d579182015b82811115612a5c578251825591602001919060010190612a41565b5b509050612a6a9190612a6e565b5090565b5b80821115612a87576000816000905550600101612a6f565b5090565b6000612a9e612a998461389f565b61386e565b905082815260208101848484011115612ab657600080fd5b612ac1848285613afb565b509392505050565b600082601f830112612ada57600080fd5b8135612aea848260208601612a8b565b91505092915050565b600081359050612b0281613cc8565b92915050565b600080600080600060a08688031215612b2057600080fd5b600086013567ffffffffffffffff811115612b3a57600080fd5b612b4688828901612ac9565b955050602086013567ffffffffffffffff811115612b6357600080fd5b612b6f88828901612ac9565b945050604086013567ffffffffffffffff811115612b8c57600080fd5b612b9888828901612ac9565b9350506060612ba988828901612af3565b9250506080612bba88828901612af3565b9150509295509295909350565b600060208284031215612bd957600080fd5b6000612be784828501612af3565b91505092915050565b600080600080600060a08688031215612c0857600080fd5b6000612c1688828901612af3565b955050602086013567ffffffffffffffff811115612c3357600080fd5b612c3f88828901612ac9565b945050604086013567ffffffffffffffff811115612c5c57600080fd5b612c6888828901612ac9565b935050606086013567ffffffffffffffff811115612c8557600080fd5b612c9188828901612ac9565b9250506080612ca288828901612af3565b9150509295509295909350565b6000612cbb8383613272565b60808301905092915050565b6000612cd383836132c7565b905092915050565b612ce481613a8e565b82525050565b612cf381613a8e565b82525050565b6000612d04826138ef565b612d0e818561392a565b9350612d19836138cf565b8060005b83811015612d4a578151612d318882612caf565b9750612d3c83613910565b925050600181019050612d1d565b5085935050505092915050565b6000612d62826138fa565b612d6c818561393b565b935083602082028501612d7e856138df565b8060005b85811015612dba5784840389528151612d9b8582612cc7565b9450612da68361391d565b925060208a01995050600181019050612d82565b50829750879550505050505092915050565b612dd581613aa0565b82525050565b612de481613aa0565b82525050565b612df381613ae9565b82525050565b6000612e0482613905565b612e0e8185613957565b9350612e1e818560208601613b0a565b612e2781613ca3565b840191505092915050565b6000612e3f600f83613968565b91507f50524f4a4543542044454c4554454400000000000000000000000000000000006000830152602082019050919050565b6000612e7f601383613968565b91507f556e617574686f72697a656420456e74697479000000000000000000000000006000830152602082019050919050565b6000612ebf601083613968565b91507f50524f4a4543542050414944204f5554000000000000000000000000000000006000830152602082019050919050565b6000612eff601883613968565b91507f50726f6a656374206e6f206c6f6e676572206f70656e656400000000000000006000830152602082019050919050565b6000612f3f601483613968565b91507f50726f6a656374206e6f7420415050524f5645440000000000000000000000006000830152602082019050919050565b6000612f7f601b83613968565b91507f4465736372697074696f6e2063616e6e6f7420626520656d70747900000000006000830152602082019050919050565b6000612fbf600e83613968565b91507f50524f4a454354204241434b45440000000000000000000000000000000000006000830152602082019050919050565b6000612fff601583613968565b91507f5469746c652063616e6e6f7420626520656d70747900000000000000000000006000830152602082019050919050565b600061303f602683613968565b91507f50726f6a656374206e6f74206d61726b656420617320726576657274206f722060008301527f64656c65746500000000000000000000000000000000000000000000000000006020830152604082019050919050565b60006130a5601383613968565b91507f436f73742063616e6e6f74206265207a65726f000000000000000000000000006000830152602082019050919050565b60006130e5600f83613968565b91507f50524f4a454354205550444154454400000000000000000000000000000000006000830152602082019050919050565b6000613125601183613968565b91507f50726f6a656374206e6f7420666f756e640000000000000000000000000000006000830152602082019050919050565b6000613165600f83613968565b91507f50524f4a454354204352454154454400000000000000000000000000000000006000830152602082019050919050565b60006131a5601383613968565b91507f4f776e6572207265736572766564206f6e6c79000000000000000000000000006000830152602082019050919050565b60006131e5601883613968565b91507f496d61676555524c2063616e6e6f7420626520656d70747900000000000000006000830152602082019050919050565b600061322560008361394c565b9150600082019050919050565b600061323f601f83613968565b91507f4574686572206d7573742062652067726561746572207468616e207a65726f006000830152602082019050919050565b6080820160008201516132886000850182612cdb565b50602082015161329b60208501826134c1565b5060408201516132ae60408501826134c1565b5060608201516132c16060850182612dcc565b50505050565b6000610160830160008301516132e060008601826134c1565b5060208301516132f36020860182612cdb565b506040830151848203604086015261330b8282612df9565b915050606083015184820360608601526133258282612df9565b9150506080830151848203608086015261333f8282612df9565b91505060a083015161335460a08601826134c1565b5060c083015161336760c08601826134c1565b5060e083015161337a60e08601826134c1565b5061010083015161338f6101008601826134c1565b506101208301516133a46101208601826134c1565b506101408301516133b9610140860182612dea565b508091505092915050565b6000610160830160008301516133dd60008601826134c1565b5060208301516133f06020860182612cdb565b50604083015184820360408601526134088282612df9565b915050606083015184820360608601526134228282612df9565b9150506080830151848203608086015261343c8282612df9565b91505060a083015161345160a08601826134c1565b5060c083015161346460c08601826134c1565b5060e083015161347760e08601826134c1565b5061010083015161348c6101008601826134c1565b506101208301516134a16101208601826134c1565b506101408301516134b6610140860182612dea565b508091505092915050565b6134ca81613adf565b82525050565b6134d981613adf565b82525050565b60006134ea82613218565b9150819050919050565b60006020820190506135096000830184612cea565b92915050565b600060208201905081810360008301526135298184612cf9565b905092915050565b6000602082019050818103600083015261354b8184612d57565b905092915050565b60006020820190506135686000830184612ddb565b92915050565b6000602082019050818103600083015261358781612e72565b9050919050565b600060208201905081810360008301526135a781612ef2565b9050919050565b600060208201905081810360008301526135c781612f32565b9050919050565b600060208201905081810360008301526135e781612f72565b9050919050565b6000602082019050818103600083015261360781612ff2565b9050919050565b6000602082019050818103600083015261362781613032565b9050919050565b6000602082019050818103600083015261364781613098565b9050919050565b6000602082019050818103600083015261366781613118565b9050919050565b6000602082019050818103600083015261368781613198565b9050919050565b600060208201905081810360008301526136a7816131d8565b9050919050565b600060208201905081810360008301526136c781613232565b9050919050565b600060208201905081810360008301526136e881846133c4565b905092915050565b600060208201905061370560008301846134d0565b92915050565b600060608201905061372060008301856134d0565b818103602083015261373181612e32565b905061374060408301846134d0565b9392505050565b600060608201905061375c60008301856134d0565b818103602083015261376d81612eb2565b905061377c60408301846134d0565b9392505050565b600060608201905061379860008301856134d0565b81810360208301526137a981612fb2565b90506137b860408301846134d0565b9392505050565b60006060820190506137d460008301856134d0565b81810360208301526137e5816130d8565b90506137f460408301846134d0565b9392505050565b600060608201905061381060008301856134d0565b818103602083015261382181613158565b905061383060408301846134d0565b9392505050565b600060608201905061384c60008301866134d0565b61385960208301856134d0565b61386660408301846134d0565b949350505050565b6000604051905081810181811067ffffffffffffffff8211171561389557613894613c74565b5b8060405250919050565b600067ffffffffffffffff8211156138ba576138b9613c74565b5b601f19601f8301169050602081019050919050565b6000819050602082019050919050565b6000819050602082019050919050565b600081519050919050565b600081519050919050565b600081519050919050565b6000602082019050919050565b6000602082019050919050565b600082825260208201905092915050565b600082825260208201905092915050565b600081905092915050565b600082825260208201905092915050565b600082825260208201905092915050565b600061398482613adf565b915061398f83613adf565b9250827fffffffffffffffffffffffffffffffffffffffffffffffffffffffffffffffff038211156139c4576139c3613bb8565b5b828201905092915050565b60006139da82613adf565b91506139e583613adf565b9250826139f5576139f4613be7565b5b828204905092915050565b6000613a0b82613adf565b9150613a1683613adf565b9250817fffffffffffffffffffffffffffffffffffffffffffffffffffffffffffffffff0483118215151615613a4f57613a4e613bb8565b5b828202905092915050565b6000613a6582613adf565b9150613a7083613adf565b925082821015613a8357613a82613bb8565b5b828203905092915050565b6000613a9982613abf565b9050919050565b60008115159050919050565b6000819050613aba82613cb4565b919050565b600073ffffffffffffffffffffffffffffffffffffffff82169050919050565b6000819050919050565b6000613af482613aac565b9050919050565b82818337600083830152505050565b60005b83811015613b28578082015181840152602081019050613b0d565b83811115613b37576000848401525b50505050565b60006002820490506001821680613b5557607f821691505b60208210811415613b6957613b68613c45565b5b50919050565b6000613b7a82613adf565b91507fffffffffffffffffffffffffffffffffffffffffffffffffffffffffffffffff821415613bad57613bac613bb8565b5b600182019050919050565b7f4e487b7100000000000000000000000000000000000000000000000000000000600052601160045260246000fd5b7f4e487b7100000000000000000000000000000000000000000000000000000000600052601260045260246000fd5b7f4e487b7100000000000000000000000000000000000000000000000000000000600052602160045260246000fd5b7f4e487b7100000000000000000000000000000000000000000000000000000000600052602260045260246000fd5b7f4e487b7100000000000000000000000000000000000000000000000000000000600052604160045260246000fd5b6000601f19601f8301169050919050565b60058110613cc557613cc4613c16565b5b50565b613cd181613adf565b8114613cdc57600080fd5b5056fea2646970667358221220b3aa9d3a0db8668913adf440ed9b934520d057d3cbbbea79fb240fe048c2f31364736f6c63430008000033",
  "linkReferences": {},
  "deployedLinkReferences": {}
}